{
  "contractName": "Eleciton",
  "abi": [
    {
      "constant": true,
      "inputs": [],
      "name": "candidate",
      "outputs": [
        {
          "name": "",
          "type": "string"
        }
      ],
      "payable": false,
      "stateMutability": "view",
      "type": "function"
    },
    {
      "constant": false,
      "inputs": [],
      "name": "Election",
      "outputs": [],
      "payable": false,
      "stateMutability": "nonpayable",
      "type": "function"
    }
  ],
  "bytecode": "0x6060604052341561000f57600080fd5b6102b18061001e6000396000f30060606040526004361061004c576000357c0100000000000000000000000000000000000000000000000000000000900463ffffffff1680631d6c263c146100515780636c8381f814610066575b600080fd5b341561005c57600080fd5b6100646100f4565b005b341561007157600080fd5b610079610142565b6040518080602001828103825283818151815260200191508051906020019080838360005b838110156100b957808201518184015260208101905061009e565b50505050905090810190601f1680156100e65780820380516001836020036101000a031916815260200191505b509250505060405180910390f35b6040805190810160405280600581526020017f4169626f6c0000000000000000000000000000000000000000000000000000008152506000908051906020019061013f9291906101e0565b50565b60008054600181600116156101000203166002900480601f0160208091040260200160405190810160405280929190818152602001828054600181600116156101000203166002900480156101d85780601f106101ad576101008083540402835291602001916101d8565b820191906000526020600020905b8154815290600101906020018083116101bb57829003601f168201915b505050505081565b828054600181600116156101000203166002900490600052602060002090601f016020900481019282601f1061022157805160ff191683800117855561024f565b8280016001018555821561024f579182015b8281111561024e578251825591602001919060010190610233565b5b50905061025c9190610260565b5090565b61028291905b8082111561027e576000816000905550600101610266565b5090565b905600a165627a7a72305820622e8755c91e3b1a4b5e80e6e4792d7f03f7d73beb52cc03352552f8120efe080029",
  "source": "pragma solidity ^0.4.2;\n\ncontract Eleciton {\n  \n  string public candidate;\n  //Constructor\n  function Election() public {\n    candidate = \"Aibol\";\n  }\n  \n}",
  "sourcePath": "C:\\Users\\Rabbit\\election1\\contracts\\Election.sol",
  "compiler": {
    "name": "solc",
    "version": "0.4.21+commit.dfe3193c.Emscripten.clang"
  },
  "schemaVersion": "2.0.0",
  "updatedAt": "2018-04-14T04:33:28.336Z"
}